:100E2E0050617373776F72642D00436F72726563D6
:100E3E007400496E636F72726563740031323334BD
:010E4E0000A3
:060DE000D2B17F017E008C
:100DE600E4FDFCC3ED9FEE6480F8EC64809850143B
:100DF600E4FBFA0BBB00010AEBF44A70F60DBD00EA
:040E0600010C80DF7C
:010E0A0022C5
:0C0E4F00120E857FC87E00120DE67F06A3
:0A0E5B008FA0C2B0120DE0C2B12258
:0A0E85008FA0D2B0120DE0C2B1221E
:100E0B008B178A188919AB17AA18A919120C0AFF84
:100E1B006010120E8574012519F519E43518F518B3
:030E2B0080E4223E
:100E65007F01120E5B7F38120E5B7F0E120E5B7FC9
:040E750080020E5B8E
:1008000078087C007D007BFF7A0E794A7E007F05A8
:10081000120BE4E4F512F513F51475150075160DB9
:10082000120E657BFF7A0E792E120E0BE4F511C3C2
:10083000E5139404E512648094804003020ABF75B6
:1008400090FEAF90EF64EE7021AB14AA15A9168547
:1008500013828512837437120C237F37120E4F05D3
:1008600013E513700205120208DDAF90EF64DE702D
:1008700020AB14AA15A91685138285128374381229
:100880000C237F38120E4F0513E5137050051280AC
:100890004CAF90EF64BE7020AB14AA15A916851357
:1008A000828512837439120C237F39120E4F05137F
:1008B000E513702905128025AF90EF647E701EABA2
:1008C00014AA15A916851382851283742F120C237E
:1008D0007F2F120E4F0513E513700205127590FD60
:1008E000AF90EF64ED7021AB14AA15A916851382A1
:1008F0008512837434120C237F34120E4F0513E5D6
:1009000013702A051202097BAF90EF64DD7020ABF3
:1009100014AA15A9168513828512837435120C2327
:100920007F35120E4F0513E51370020512804CAF90
:1009300090EF64BD7020AB14AA15A91685138285AB
:1009400012837436120C237F36120E4F0513E513F3
:10095000702905128025AF90EF647D701EAB14AA3C
:1009600015A916851382851283742A120C237F2AF7
:10097000120E4F0513E513700205127590FBAF9030
:10098000EF64EB7021AB14AA15A9168513828512AA
:10099000837431120C237F31120E4F0513E513704F
:1009A0002A0512020A19AF90EF64DB7020AB14AA7B
:1009B00015A9168513828512837432120C237F3297
:1009C000120E4F0513E51370020512804CAF90EF25
:1009D00064BB7020AB14AA15A916851382851283F7
:1009E0007433120C237F33120E4F0513E513702955
:1009F00005128025AF90EF647B701EAB14AA15A979
:100A000016851382851283742D120C237F2D120EEE
:100A10004F0513E513700205127590F7AF90EF6460
:100A2000E77021AB14AA15A9168513828512837469
:100A300043120C237F43120E4F0513E513702A0552
:100A40001202082FAF90EF64D77021AB14AA15A93A
:100A5000168513828512837430120C237F30120E98
:100A60004F0513E5137002051202082FAF90EF64D3
:100A7000B77021AB14AA15A9168513828512837449
:100A80003D120C237F3D120E4F0513E51370020536
:100A90001202082FAF90EF6477600302082FAB14A7
:100AA000AA15A916851382851283742B120C237F35
:100AB0002B120E4F0513E5137002051202082FE5E5
:100AC0001364044512600302082F78087C00FDFBC4
:100AD0007A00790D120DC3EF3395E04F701B7FC084
:100AE000120E5B7BFF7A0E7938120E0BD2B2C2B3B4
:100AF0007F647E00120DE680C67FC0120E5B7BFF16
:100B00007A0E7940120E0BC2B2C2B37F647E00121D
:040B10000DE680ABC3
:03000000020E7974
:0C0E7900787FE4F6D8FD758119020800AE
:100B1400E709F608DFFA8046E709F208DFFA803EC3
:100B240088828C83E709F0A3DFFA8032E309F608B0
:100B3400DFFA8078E309F208DFFA807088828C8318
:100B4400E309F0A3DFFA806489828A83E0A3F608CC
:100B5400DFFA805889828A83E0A3F208DFFA804CA6
:100B640080D280FA80C680D4806980F2803380107D
:100B740080A680EA809A80A880DA80E280CA8033E6
:100B840089828A83ECFAE493A3C8C582C8CCC5835E
:100B9400CCF0A3C8C582C8CCC583CCDFE9DEE7802E
:100BA4000D89828A83E493A3F608DFF9ECFAA9F0AD
:100BB400EDFB2289828A83ECFAE0A3C8C582C8CC03
:100BC400C583CCF0A3C8C582C8CCC583CCDFEADE1C
:100BD400E880DB89828A83E493A3F208DFF980CC7E
:100BE40088F0EF60010E4E60C388F0ED2402B40477
:100BF4000050B9F582EB2402B4040050AF2323451E
:060C04008223900B6473D3
:100C0A00BB010689828A83E0225002E722BBFE02E8
:090C1A00E32289828A83E493221B
:100C2300F8BB010DE58229F582E5833AF583E8F007
:100C3300225006E92582C8F622BBFE05E92582C8B3
:020C4300F2229B
:100C4500E3F5F009E208B5F06D606B80F3E3F5F0CC
:100C550009E608B5F060605E80F387F009E608B53F
:100C6500F054605280F487F009E208B5F048604618
:100C750080F488828C8387F009E0A3B5F03860366C
:100C850080F488828C8387F009E493A3B5F027600C
:100C95002580F388828C83E3F5F009E0A3B5F0168F
:100CA500601480F388828C83E3F5F009E493A3B59F
:100CB500F004600280F2020D70808580E7808E80EE
:100CC500D2803C8015806C807E809B80B5808B8037
:100CD500A1804F8070803A020D7C89828A83ECFA6C
:100CE500E493F5F0A3C8C582C8CCC583CCE493A32F
:100CF500C8C582C8CCC583CCB5F070606E80E1896B
:100D0500828A83E493F5F0A3E208B5F05E605C8027
:100D1500F289828A83E0F5F0A3E608B5F04D604BD1
:100D250080F389828A83E0F5F0A3E208B5F03C60A0
:100D35003A80F389828A83E493F5F0A3E608B5F057
:100D45002A602880F2805389828A83ECFAE493F53D
:100D5500F0A3C8C582C8CCC583CCE0A3C8C582C8EA
:100D6500CCC583CCB5F004600280E27FFFB5F0020C
:100D75000F2240027F012289828A83ECFAE0F5F096
:100D8500A3C8C582C8CCC583CCE0A3C8C582C8CCDE
:100D9500C583CCB5F0D560D380E389828A83ECFA2C
:100DA500E0F5F0A3C8C582C8CCC583CCE493A3C83D
:100DB500C582C8CCC583CCB5F0B160AF80E288F000
:100DC500ED2402B4040050A3F582EB2402B4040020
:0B0DD50050992323458223900CBE732D
:00000001FF
